:020000040000fa
:10000000f8ff032019100000ff1500009f1a0000e0
:10001000c71b00001b1c0000a3180000000000000c
:10002000000000000000000000000000211c000093
:100030008b1b000000000000211c0000211c0000a0
:10004000211c0000211c0000211c0000211c0000bc
:10005000211c0000211c0000211c0000211c0000ac
:10006000211c0000211c0000211c0000211c00009c
:10007000211c0000211c0000211c0000211c00008c
:10008000211c0000211c0000211c0000211c00007c
:10009000211c0000211c0000211c0000211c00006c
:1000a000211c0000211c0000211c0000211c00005c
:1000b000211c0000211c0000211c0000211c00004c
:1000c000211c0000211c0000211c0000211c00003c
:1000d000211c0000211c0000211c0000211c00002c
:1000e000211c0000211c0000000000000000000096
:1000f00000000000211c0000951400009514000071
:100100009514000095140000211c0000211c000023
:10011000211c0000211c0000f1140000f11400005b
:10012000f1140000f1140000211c0000211c00004b
:10013000211c0000211c0000211c0000211c0000cb
:10014000211c0000211c0000211c0000211c0000bb
:10015000211c0000211c0000211c0000211c0000ab
:10016000211c0000211c0000e10a0000e10a00003f
:10017000e10a0000e10a0000211c00005d08000007
:10018000211c0000211c0000211c0000211c00007b
:10019000211c0000211c0000211c0000211c00006b
:1001a000211c0000211c0000211c0000211c00005b
:1001b000211c0000211c0000211c0000211c00004b
:1001c000211c0000211c0000211c0000211c00003b
:1001d000211c0000211c0000211c0000211c00002b
:1001e000211c0000211c0000211c0000211c00001b
:1001f000211c0000211c0000211c0000211c00000b
:10020000211c0000211c0000211c0000211c0000fa
:10021000211c0000211c0000211c0000211c0000ea
:10022000211c0000211c0000211c0000211c0000da
:10023000211c0000211c0000211c0000211c0000ca
:10024000211c0000211c0000211c0000211c0000ba
:10025000211c0000211c0000211c0000211c0000aa
:04026000211c00005d
:020000040000fa
:10026400f8b500bff8bc08bc9e46704749180000aa
:10027400f8b500bff8bc08bc9e46704725180000be
:020000040000fa
:08028400380300000100000036
:020000040000fa
:10028c002de9f047aeb00746164605914ff0000831
:10029c00059d2b78002b00f0e08000244ff0ff33fd
:1002ac00cde909430eab0c9380230b940d932b5d7e
:1002bc000bb1252b30d134b1294622463846254482
:1002cc0001f0fcfb0595059b1a78252a40f0bc80b3
:1002dc0003f10109cdf814904a46002113782b2b19
:1002ec00104602f1010223d02ed8202b24d0232b30
:1002fc0026d001b105902a2b2ed001f069fa059a6f
:10030c000b900020114601320b78303b092b79d928
:10031c00002830d005912ee00134c8e7099b43f04a
:10032c00010309930121d9e7099b43f00203f8e784
:10033c00099b43f00403f4e7099b43f00803f0e73f
:10034c00099b43f01003ece72d2be7d0302bebd0bf
:10035c000029d2d00590d0e733681a1d1b68326093
:10036c000130002b05900b9305da099a5b4282f061
:10037c00010209920b93099bda0744bf23f0020395
:10038c000993059b1a782e2a0fd14ff0000acdf84d
:10039c0028a05a785d1c2a2a059535d1023305937d
:1003ac0033681a1d1b6832600a9305a801f0acfa79
:1003bc00059d0390287801f011fc2528039900f085
:1003cc00da806138172800f2e080172800f2dd800f
:1003dc00dfe810f02b00db00b6004700a700a700f9
:1003ec00a700db004700db00db00db00db009e002e
:1003fc0065008300db00db00c700db005600db0080
:10040c00db00740001207de7284601f0e1f953463a
:10041c000a90294601350a78303a092a03d9002b6b
:10042c00c3d00591c1e70123f3e7324606a801f0da
:10043c001bfb002872d06b1c059306aa2b7809a90c
:10044c00384601f0e0fb04444444a04540f3a78047
:10045c00544b4f221a604ff0ff3840462eb0bde887
:10046c00f0873346012206a800f022fd002855d063
:10047c00013506aa09a93846059501f0c2fbe2e749
:10048c003346002206a800f013fd002846d00135a3
:10049c0006aa09a93846059501f080f8d3e733463a
:1004ac00002206a800f004fd002837d0013506aa6a
:1004bc0009a93846059501f0a4fbc4e73346002290
:1004cc0006a800f0f5fc48b36b1c05932b7806aa24
:1004dc0009a9384601f097fbb5e733460022f02115
:1004ec0006a800f0e5fcc8b1dde90632013513437e
:1004fc0005950bd12c4801f02bfb099b00932a4945
:10050c000b9b0246384600f0c5fd9ce77823dee7de
:10051c00334608eb040206a800f0aefe0135059543
:10052c0092e7324606a801f09ffa0028f6d06b1c21
:10053c00059306aa2b7809a9384601f064fb82e7db
:10054c008029ebd1336801351a1d1b6832608df898
:10055c0018300595012306aa09a9384601f055fb68
:10056c0071e78029dad13268131d336001351268c6
:10057c0005950023f0e78029d0d1099b0093013524
:10058c000b9b059509490122bce700234ff0ff3274
:10059c00cdf8149009930b930a920093f2e7a046be
:1005ac0076e600bf88020020021c0000081c000038
:020000040000fa
:1005bc002de9f04786468c460846089e154674463b
:1005cc001946002b40f0c2808242b2fa82f245d921
:1005dc004ab1c2f1200300fa02fc2efa03f3954053
:1005ec0043ea0c0c94404fea154ea8b2bcfbfef843
:1005fc00230c0efb18cc08fb00f943ea0c4399457d
:10060c0028d9eb1808f1ff3704d2994502d9a8f183
:10061c0002072b44a3eb0903a4b2b3fbfefc0efbb5
:10062c001c330cfb00f044ea0344a04214d92c19ef
:10063c000cf1ff3304d2a04202d9acf102032c44da
:10064c00241a43ea07401eb1d4400023346073607f
:10065c00bde8f0874746dde76346f1e792bb431bf5
:10066c0001214fea154eafb2b3fbfefc200c0efb82
:10067c001c330cfb07f840ea0343984562d9eb188e
:10068c000cf1ff3004d2984502d9acf102002b4496
:10069c00a3eb0803a4b2b3fbfefc0efb1c330cfb58
:1006ac0007f744ea0344a7424ed92c190cf1ff3347
:1006bc0004d2a74202d9acf102032c44e41b43ea56
:1006cc000040c0e7c2f1200320fa03f195409040ae
:1006dc002efa03f303434fea154eafb2b1fbfefc07
:1006ec000efb1c10190c0cfb07f841ea0041884565
:1006fc0004fa02f422d969180cf1ff3004d28845af
:10070c0002d9acf102002944a1eb08019bb2b1fb68
:10071c00fefc0efb1c110cfb07f743ea01439f4246
:10072c000ed9eb180cf1ff3104d29f4202d9acf177
:10073c0002012b44db1b41ea004192e76046e3e7f0
:10074c006146f7e76046a3e76346b7e7834206d9fd
:10075c0016b9002108467be7c6e900e0f9e7b3fad1
:10076c0083f78fb9834201d3724508d8beeb0204dc
:10077c0060eb030301209c461eb9002168e7384654
:10078c00fae7c6e9004cf8e7c7f1200cbb4022faa7
:10079c000cf41c432efa0cf120fa0cf3b840014374
:1007ac004fea14490efa07f5b3fbf9f81ffa84fe69
:1007bc0009fb18300b0c08fb0efa43ea00439a4570
:1007cc0002fa07f240d9e31808f1ff3004d29a4537
:1007dc0002d9a8f102002344a3eb0a0389b2b3fbac
:1007ec00f9f809fb183308fb0efe41ea03418e456c
:1007fc002cd9611808f1ff3304d28e4502d9a8f127
:10080c000203214443ea0040a0fb0298a1eb0e0135
:10081c004145ce46434602d306d14d4504d2b9ebf1
:10082c00020e68eb04030138002ea6d0b5eb0e02c5
:10083c0061eb030101fa0cfc22fa07f34cea030307
:10084c00f940c6e9003198e74046c5e74346d9e789
:020000040000fa
:10085c002de9f04184b09a4b1c6d14f0007f1cbf45
:10086c004ff000721a6514f0010f6ed0944b0122f8
:10087c001a655a6d22f001025a65d3f8a43013f0b0
:10088c007f0f62d08e4bd3f8a450c5f305258d4b4a
:10089c00db6805ebc50203ebc20cdcf8003013f08f
:1008ac00804fdcf8003005eb8501874a02eb8102b2
:1008bc00126814bf23f06043c3f38a431360dcf85f
:1008cc000020dcf8043013f4001f0bd112f0005f91
:1008dc0008d005eb85027c4b03eb82031b690122dc
:1008ec001a7007e005eb8502774b03eb82031b695b
:1008fc0000221a70dcf80460744b0fcb04af07e9cc
:10090c000f00c6f3034606f110030deb030616f8b1
:10091c00108c6d4eaf0005eb850306eb8303586816
:10092c0042460cf1080101f007f92f4406eb87064b
:10093c00b36883f80080624bc3f8a850644b1b6803
:10094c001bb1634b1a685868904714f0100f69d0ac
:10095c005b4b10221a655a6d22f010025a65d3f8bf
:10096c00b43013f07f0f5dd0554bd3f8b450c5f3b2
:10097c000525544b1b6905ebc50203ebc20cdcf8d7
:10098c00003013f0804fdcf8003005eb85014e4a47
:10099c0002eb8102d2f8a02014bf23f06043c3f312
:1009ac008a431360dcf80020dcf8043013f4001fd9
:1009bc0002d112f0005f45d105eb8502424b03ebef
:1009cc008203d3f8b03000221a70dcf804603f4b7d
:1009dc000fcb04af07e90f00c6f3034606f1100373
:1009ec000deb030616f8108c374eaf0005eb8503a4
:1009fc0006eb8303d3f8a40042460cf1080101f086
:100a0c009bf82f4406eb8706d6f8a83083f80080b5
:100a1c002b4bc3f8b8502e4b9b681bb12c4b9a68d0
:100a2c00d868904714f4007f31d0254b4ff40072f6
:100a3c001a655a6d22f400725a6500234ff0010cae
:100a4c001f490ce005eb85021f4b03eb8203d3f827
:100a5c00b03001221a70b8e70133082b10d00cfa11
:100a6c0003f2d1f8d850d1f8e0001042f4d015427e
:100a7c00f2d0d1f8e00020ea0202c1f8e020ebe766
:100a8c00134b9b691bb1124b9a69d869904714f4ac
:100a9c00006f11d00a4a4ff400631365d2f8c430ca
:100aac00c3f30423d2f8c420c2f30442934203d20a
:100abc000133dbb29a42fbd104b0bde8f08100bf38
:100acc00000400421c02002000000020c81b000093
:040adc0044020020b0
:020000040000fa
:100ae0006d4b9b7d002b00f0d68010b56b4b9c6a44
:100af000694b5b8b13f0020f16d0684bff2283f813
:100b00002020022283f82120644b93f820305bb22e
:100b1000b3f1ff3f00f08d80604b93f820305bb263
:100b2000062b00f09f8010bd5b4b5b8b13f0010f19
:100b300007d05a4bff2283f82020022283f821207d
:100b4000e2e7554b5b8b13f0040f07d0534bff22aa
:100b500083f82020012283f82120d5e74f4b93f81a
:100b600020305bb2032b45d0042b12d0022bcbd10b
:100b70004a4b1b6933b1494b9888002180b200f081
:100b8000e3fdc1e7454b9888012180b200f0dcfd10
:100b9000bae7424a936912699a420bd03f4a926877
:100ba000d15c3d4a9162591cd369002bfcd13b4b6f
:100bb0009961a9e7394b5b697bb1384b9b889bb244
:100bc0005b0043f00103344a5362d369002bfcd12c
:100bd000324b032283f8202096e72f4a536843f4d0
:100be00040335360d369002bfcd12c4b062283f891
:100bf000202089e7294bd9695b69013b8b420bd0e7
:100c0000254ad369002bfcd1234b986a234bda6821
:100c100050540131d96177e71f4a536843f4e02308
:100c20005360d369002bfcd11c4b062283f8202093
:100c3000e6e71a4b002283f82020174a536843f452
:100c400040335360d369002bfcd1134b83221a76b7
:100c5000124b5b6a002b3ff466af104b5b6a204679
:100c6000984760e70d4b002283f8202083f821206d
:100c7000094b83221a761a46538b03f03003102b4c
:100c8000fad1064b5b6a002b3ff44daf034b5b6a16
:100c90002046984747e77047000c0043f0010020ca
:020000040000fa
:100ca000474b484a9a611a46136913f0020ffbd06a
:100cb000454b42f20e229a821a46d36813f0010f76
:100cc000fbd0414b00221a74a3f580633f4a9a631c
:100cd00027225a631a46d36b13f0040ffbd1384b0b
:100ce000022283f830201a46d36b13f0020ffbd197
:100cf000334a136c03f00303032bfad1344b354a08
:100d00005a621a46536813f0080ffbd1304b324a2f
:100d10009a621a46536813f0100ffbd12f4b012231
:100d20005a711a46d37813f0010ffbd0284b2c4a86
:100d30001a621a46536813f0040ffbd1244b412268
:100d4000c3f89c201a4600bfd2f89c3013f0400f25
:100d5000fad01f4b4022c3f8a4201a46d2f8a43080
:100d600013f0400ffad01a4b4122c3f8dc201a4688
:100d7000d2f8dc3013f0400ffad0154b4222c3f802
:100d8000f0201a46d2f8f03013f0400ffad0104b92
:100d90004122c3f814211a46d2f8143113f0400f3f
:100da000fad00e4b0f4a1a614df2ff725a610e4a89
:100db0009a614ff41052da6108221a62704700bf3c
:100dc0000010004006a65000001400406000010022
:100dd000001c004001010100070102000008004062
:0c0de00006010100fffffd00568201002b
:020000040000fa
:100dec0010b43149cb6823f4e0631b041b0c43f0b3
:100dfc00bf6343f40033cb60bff35f8f62b62b4b02
:100e0c00e02283f82e234ff48040586083f82f2380
:100e1c004ff40040586083f830234ff480345c600a
:100e2c0083f831234ff400345c6083f836234ff49d
:100e3c0080045c6083f837234ff400045c6083f813
:100e4c0038234ff080745c6083f839234ff00074c2
:100e5c005c6083f84a234ff480649c6083f84b23d6
:100e6c004ff400649c6083f84c234ff480549c60d6
:100e7c0083f84d234ff400549c6083f84f23986003
:100e8c004b6a43f480234b624b6943f010034b6174
:100e9c004b6a43f400334b624b6a43f480334b622e
:100eac005df8044b704700bf00ed00e000e100e08e
:020000040000fa
:100ebc00902910b50fdc7f2913dd8039102910d84b
:100ecc00dfe801f02b2b360f110f0f0f200f0f0f38
:100edc000f0f0f0f3600c02944d0f02942d0a029a3
:100eec0021d000200de019682ab10a1d1a60b1f951
:100efc000030da1702e00c1d1c600b88c0e90032d0
:100f0c00012010bd196822b10a1d1a6091f9003038
:100f1c00efe70c1d1c600b78f0e71968f2b10a1da5
:100f2c001a600b68e5e71a68111d19601368e0e791
:100f3c00196852b1073121f0070101f108021a605a
:100f4c00d1e90023c0e90023dae7ca1d22f0070229
:100f5c0002f108011960d2e90023f3e70c1d1c60b3
:100f6c000b68cbe71a68111d196013680360002326
:040f7c004360c5e722
:020000040000fa
:100f800038b5214b01229a611a46936913f0010f7b
:100f9000fbd01d4b9a6942f002029a6141f27742fe
:100fa000da601a4ada617722c3f8bc200722c3f854
:100fb000c8201422c3f880209a6942f440729a61d2
:100fc0009a6922f001029a611a46936913f0010f9f
:100fd000fbd10d4b00249c650122da654ff00072b5
:100fe0005a650b4d2c606c60ac604ff4a0722146ca
:100ff000084800f0d5fdec602c616c61ac61ec61df
:101000002c626c6238bd00bf000400421d58003adb
:081010001c020020000000207a
:020000040000fa
:1010180008b5194b9847194b9847eff3108172b6ea
:10102800174ad2f8883043f47003c2f88830bff307
:101038004f8fbff36f8f01b962b6124a936823f0de
:1010480001039360d36813f0010ffbd10d4b2422e9
:101058005a6001229a6000f08ffc0b4b23f07f034b
:10106800074a9360094b9847094b9847094b98479b
:1010780000f016fbfee700bf271c0000271c00003d
:1010880000ed00e000600041000000004d15000088
:08109800271c0000271c0000ca
:020000040000fa
:1010a0002de9ff471d460c9b13f0010806460f462d
:1010b000144601d195420bd822463946304600f0fd
:1010c00003fda54204d82546284604b0bde8f087b4
:1010d000a5eb04094a46102a28bf102220216846a1
:1010e000ca4600f05dfd00bfbaf10f0f0ed809f03f
:1010f0000f026946304600f0e7fcb8f1000fe3d17b
:1011000022463946304600f0dffcdde71022694612
:0c111000304600f0d9fcaaf1100ae5e717
:020000040000fa
:10111c001b4b1b7d002b31d010b5194a93685168bd
:10112c00184a127e12f0010f15d0994213d91549a5
:10113c0013484a6802f00702012a026814bfd25c05
:10114c0032f813208a62013344680a7e12f0010fd0
:10115c0001d09c42edd80a4a936052689a420cd84e
:10116c00074b00221a755a60064a01211175db687b
:10117c001bb1034b1869db68984710bd704700bf63
:08118c0090010020003000403a
:020000040000fa
:101194001b4b1b7d002b31d010b5194a9368516845
:1011a400184a127e12f0010f15d0994213d915492d
:1011b40013484a6802f00702012a026814bfd25c8d
:1011c40032f813208a62013344680a7e12f0010f58
:1011d40001d09c42edd80a4a936052689a420cd8d6
:1011e400074b00221a755a60064a01211175db6803
:1011f4001bb1034b1869db68984710bd704700bfeb
:08120400c0010020002001419f
:020000040000fa
:10120c002de9f84f0446dde90a9a6668d4f80c809b
:10121c0024690c9f013c1946002e4ff00003d7f8af
:10122c0000b008f804301046b8bf01264d46012323
:10123c00002c03dcdbb12046bde8f88f50ea01023c
:10124c0009d1a6eb09022a44002a04dc002df1dda9
:10125c001bf0020feed052464feaea7300f0ecfba3
:10126c00013c1346303208f80420013de0e73b68ae
:08127c0023f010033b60dee7e4
:020000040000fa
:10128400902910b50fdc7f2911dd803910290ed883
:10129400dfe801f00f0f250d170d0d0d1e0d0d0dbf
:1012a4000d0d0d0d2500a02903d0c02901d000206b
:1012b40006e019680c1d1c600b6803601a600120ad
:1012c40010bd19680c1d1c600b6803601a80f6e7da
:1012d40019680c1d1c600b6803601a70efe719682d
:1012e4000c1d1c600b680360d117c3e90021e6e7fd
:020000040000fa
:1012f400640200201c000000000000001c0200200a
:101304004800000000000000000000204001000030
:1013140000000000f00100202c000000000000008c
:101324009001002060000000000000008002002006
:1013340004000000000000004001002050000000f4
:1013440000000000840200200800000000000000eb
:101354000000000000000000666666666666666659
:020000040000fa
:1013640008b5174b93f82c30cbb1154bda691b6acf
:10137400934214d2124b986a124a916a1b6a5268b9
:1013840002f00702012a0e4a926914bfd15422f8ce
:10139400131001330a4a1362d2699a4200d008bd7d
:1013a400074b002283f82c20da61064a8421117548
:1013b4005b6a002bf3d0024b5b6a9847efe700bff0
:0813c400900100200030004000
:020000040000fa
:1013cc0008b5174b93f82c30cbb1154bda691b6a67
:1013dc00934214d2124b986a124a916a1b6a526851
:1013ec0002f00702012a0e4a926914bfd15422f866
:1013fc00131001330a4a1362d2699a4200d008bd15
:10140c00074b002283f82c20da61064a84211175df
:10141c005b6a002bf3d0024b5b6a9847efe700bf87
:08142c00c00100200020014175
:020000040000fa
:10143400144b01221a601a46d369002bfcd1114bbc
:101444004ff480725a601a46d369002bfcd10d4bbd
:101454000922da600c4a1a601a46d369002bfcd1bf
:10146400084b10225a831a46d369002bfcd1074b30
:10147400002283f8212083f82020024b83229a75ce
:10148400704700bf000c004316001000f00100205c
:020000040000fa
:1014940008b5154b9b7dd3b1134a137edbb2927d05
:1014a40012f0800f14d1104a137edbb2927d12f039
:1014b400010f02d013f0010f10d10b4a137edbb2df
:1014c400927d12f0040f02d013f0040f09d108bd6d
:1014d40013f0800fe7d000f0e3f9e4e7fff71cfe18
:0c14e400ebe7fff73dfff2e700300040af
:020000040000fa
:1014f00008b5154b9b7dd3b1134a137edbb2927da9
:1015000012f0800f14d1104a137edbb2927d12f0dc
:10151000010f02d013f0010f10d10b4a137edbb282
:10152000927d12f0040f02d013f0040f09d108bd10
:1015300013f0800fe7d000f0d1f9e4e7fff72afebf
:0c154000ebe7fff743fff2e7002001415a
:020000040000fa
:10154c000e4a38b5002313600d4a0e4c13600e4a38
:10155c000e4d13600e4a13600e4a13600e4a53620e
:10156c0013610123936000f05afb00f058fbac426e
:10157c0000d338bd54f8043b9847f8e784020020a8
:10158c004c01002070020000480100207402000091
:0c159c004001002044010020500100200c
:020000040000fa
:1015a800f0b50c46d1e9011687b0236805930029e8
:1015b800a4bf23f00203059305abe76802930a234f
:1015c800cde900630546d2e900232046fff71afe5d
:1015d8002269059b0093013a3346121a39182846a6
:1015e800fff75afd6b68db0503d563689842b8bfff
:0615f800184607b0f0bd2b
:020000040000fa
:0215fe00fee706
:020000040000fa
:10160000114b124a1a604df6ad029a814ff44032e6
:101610005a601a46d369002bfcd10b4a136843f079
:1016200002031360d369002bfcd1094b00229a619d
:10163000da611a6283f82c205a621a605a609a6042
:101640001a75da60da8570470030004004012040e6
:0416500090010020e5
:020000040000fa
:10165400114b124a1a604df6ad029a814ff4403292
:101664005a601a46d369002bfcd10b4a136843f025
:1016740002031360d369002bfcd1094b00229a6149
:10168400da611a6283f82c205a621a605a609a60ee
:101694001a75da60da8570470020014104011040b0
:0416a400c001002061
:020000040000fa
:1016a800f0b58fb0002000f081f90e4800f0f4f991
:1016b80000220d4f16460d4c00e02a46551c3946af
:1016c80002a800f02efa02a800f0e6f90196019ba4
:1016d800a342f2d8019b01330193019ba342f9d99c
:1016e800ebe700bf6418000094180000bfc62d0087
:020000040000fa
:1016f80010b54ff0ff3c88b00c4611461a464ff41f
:101708008173cde901c300b96846cde9030454b13a
:10171800631e002c059308da084b4f221a604ff01d
:10172800ff3008b010bd2346f3e70023cde90600db
:10173800037001a800f0e7f9f3e700bf8802002072
:020000040000fa
:10174800104b00229a61da610f4b83221a765a688d
:1017580022f480225a601a46d369002bfcd161b169
:10176800084b032283f8202041ea4001064b5962c6
:101778001a46d369002bfcd17047024b042283f828
:0c1788002020f1e7f0010020000c0043dd
:020000040000fa
:10179400104b012283f8cc2083f8cd2083f8d82085
:1017a40083f8d920772183f8b610332183f8bc104d
:1017b4004ff40051c3f80011002183f84d1183f850
:1017c400361183f8c82183f8c921222283f8b42171
:0817d400704700bf00800041d6
:020000040000fa
:1017dc000278202a034600f10100f9d0a2f1090198
:1017ec000429f5d92b2a06d02d2a13d10121013336
:1017fc00013b002006e00021f9e700bf00eb800070
:10180c00c2eb400013f8012f303a092af6d901b97e
:08181c00404270470021ebe798
:020000040000fa
:1018240010b5054c237833b9044b13b10448aff316
:1018340000800123237010bd64020020000000001a
:101844000000000008b5034b1bb103490348aff384
:10185400008008bd000000006802002000000000b5
:020000040000fa
:101864000d0a3d3d3d2053414d20453534206361f3
:101874006c697369796f7221204d65726861626168
:10188400204675726b616e203d3d3d0d0a000000df
:0d18940053617961633a20256c750d0a00df
:020000040000fa
:0218a200fee75f
:020000040000fa
:1018a4000b4b5b8b13f0070300d1704710b5094c49
:1018b400e38500f095f8064b84221a75002384f81a
:1018c4002c30636a13b1a06a636a984710bd00bfe5
:0818d4000030004090010020eb
:020000040000fa
:1018dc000b4b5b8b13f0070300d1704710b5094c11
:1018ec00e38500f091f8064b84221a75002384f8e6
:1018fc002c30636a13b1a06a636a984710bd00bfad
:08190c0000200141c001002090
:020000040000fa
:1019140030b50c4a0146002012f810301bb902eb16
:101924004002507830bd0c6825789d4209bf02eb17
:101934004003431c5878013414bfd8b20c600a2801
:08194400ead9efe7741b000073
:020000040000fa
:10194c000a4b01221a601a46136913f0010ffbd1de
:10195c00064b18221a6003221a73054ada613322e5
:10196c009a721a461369002bfcd17047003800405c
:04197c0078666666bd
:020000040000fa
:1019800038b50a480a4d016821b9436813b900f017
:101990004bf938bd0389426855f8233000f10c0437
:1019a0002046984704eb8000ede700bff4120000ea
:0419b0008c1b00008c
:020000040000fa
:1019b40008b500f00ff9fff7ebfefff76ff9fff73b
:1019c40047fefff71bfe00f02af9fff731fdfff792
:1019d400d5fa00f025f9fff7b7fffff705fa08bdc0
:020000040000fa
:1019e4000a4b5b8b13f0070f0ed0084b80221a763c
:1019f40007225a831b7e13f0040f05d0034b9a6a07
:101a04001a7e12f0040ffad1704700bf0030004074
:020000040000fa
:101a14000a4b5b8b13f0070f0ed0084b80221a760b
:101a240007225a831b7e13f0040f05d0034b9a6ad6
:101a34001a7e12f0040ffad1704700bf0020014152
:020000040000fa
:101a440053b94ab9002908bf00281cbf4ff0ff3121
:101a54004ff0ff3000f0e0b8adf1080c6de904ceb2
:101a6400fef7aafdddf804e0dde9022304b07047c7
:020000040000fa
:101a7400812903dc7f2903dc002070478329fbd103
:101a84001368073323f0070303f108011160d3e956
:0a1a94000023c0e900230120704781
:020000040000fa
:021a9e00fee761
:020000040000fa
:101aa000017849b1074a137e13f0010ffbd0916210
:101ab00010f8011f0029f6d1024a137e13f0020f1d
:081ac000fbd07047002001413a
:020000040000fa
:101ac80038b503699a4228bf1a460446154652b1ea
:101ad800406900f033f8636922692b44521b226184
:081ae800002263611a7038bd91
:020000040000fa
:101af00010b50023934206d113f0030018bf012054
:0e1b000000eb930010bdc45ccc540133f2e73f
:020000040000fa
:101b0e0013b50446019201aafef7b9fb636813f000
:0c1b1e00100f18bf4ff0ff3002b010bdd8
:020000040000fa
:101b2a000eb403b503aa52f8041b019200f05ef842
:0a1b3a0002b05df804eb03b0704741
:020000040000fa
:101b44004ab1431e84460a4411f8010b03f8010ffd
:081b54009142f9d1604670478f
:020000040000fa
:101b5c0003783bb1034600bf13f8012f002afbd1d9
:081b6c00181a70471846704773
:020000040000fa
:101b740068076c094c836a9074a07ac000806888f6
:061b840000846c82008168
:020000040000fa
:021b8a00fee774
:020000040000fa
:101b8c00b51b0000f11a00000b1c00000b1c000020
:041b9c000b1c00001e
:020000040000fa
:101ba00032b1c9b20244034603f8011b9a42fbd189
:041bb000704700bfbb
:020000040000fa
:101bb4000a440023914201d10020704701f8013bff
:021bc400f8e740
:020000040000fa
:021bc600fee738
:020000040000fa
:101bc8000001020304050607080c10141820304011
:020000040000fa
:101bd800024b4ff482721a80704700bf00400041e8
:020000040000fa
:0e1be800a0f14103192b98bf40f02000704778
:020000040000fa
:0c1bf60013460a466ff00041fff77bbd6c
:020000040000fa
:081c0200286e696c2900250021
:020000040000fa
:041c0a0000207047ff
:020000040000fa
:041c0e0000207047fb
:020000040000fa
:041c120000207047f7
:020000040000fa
:041c160000207047f3
:020000040000fa
:021c1a00fee7e3
:020000040000fa
:041c1c00704700bf4e
:020000040000fa
:021c2000fee7dd
:020000040000fa
:021c2200704709
:020000040000fa
:021c2400704707
:020000040000fa
:021c2600704705
:020000040000fa
:021c2800704703
:020000040000fa
:021c2a00704701
:020000040000fa
:0200000400807a
:044000003912003c35
:020000040000fa
:0200000400807a
:044004008000a82a66
:020000040000fa
:0200000400807a
:04400800ffffffffb8
:00000001FF
