:020000040000fa
:10000000f8ff0320751b00003f1000006f14000074
:100010004f2600004f270000fb27000000000000d3
:10002000000000000000000000000000b5280000f3
:10003000a721000000000000b52800001d280000d6
:10004000b5280000b5280000b5280000b52800003c
:10005000b5280000b5280000b5280000b52800002c
:10006000b5280000b5280000b5280000b52800001c
:10007000b5280000b5280000b5280000b52800000c
:10008000b5280000b5280000b5280000b5280000fc
:10009000b5280000b5280000b5280000b5280000ec
:1000a000b5280000b5280000b5280000b5280000dc
:1000b000b5280000b5280000b5280000b5280000cc
:1000c000b5280000b5280000b5280000b5280000bc
:1000d000b5280000b5280000b5280000b5280000ac
:1000e000b5280000b5280000000000000000000056
:1000f00000000000b5280000e51f0000e51f00001b
:10010000e51f0000e51f0000b5280000b52800002d
:10011000b5280000b5280000412000004120000063
:100120004120000041200000b5280000b528000053
:10013000b5280000b5280000b5280000b52800004b
:10014000b5280000b5280000b5280000b52800003b
:10015000b5280000b5280000b5280000b52800002b
:10016000b5280000b5280000411000004110000033
:100170004110000041100000b5280000b50b000040
:10018000b5280000b5280000b5280000b5280000fb
:10019000b5280000b5280000b5280000b5280000eb
:1001a000b5280000b5280000b5280000b5280000db
:1001b000b5280000b5280000b5280000b5280000cb
:1001c000b5280000b5280000b5280000b5280000bb
:1001d000b5280000b5280000b5280000b5280000ab
:1001e000b5280000b5280000b5280000b52800009b
:1001f000b5280000b5280000b5280000b52800008b
:10020000b5280000b5280000b5280000b52800007a
:10021000b5280000b5280000b5280000b52800006a
:10022000b5280000b5280000b5280000b52800005a
:10023000b5280000b5280000b5280000b52800004a
:10024000b5280000b5280000b5280000b52800003a
:10025000b5280000b5280000b5280000b52800002a
:04026000b5280000bd
:020000040000fa
:10026400f8b500bff8bc08bc9e467047a123000047
:10027400f8b500bff8bc08bc9e4670477d2300005b
:020000040000fa
:080284009006000001000000db
:020000040000fa
:10028c002de9f04fd1b0002002f04ef9b34801f047
:10029c0039fb4ff0e0224bf67f335361b04be0213a
:1002ac0083f823100024946107211161d3f8fc20fa
:1002bc0042f08072c3f8fc20a3f55d435c601a68c1
:1002cc0042f001021a60a74ad36943f40073d36168
:1002dc00a54d0121284602f0d9f80aa9a34801f03e
:1002ec0019fe2146284602f0d1f8a14c0ea9204651
:1002fc0001f010fe102221460aa802f0cbf90028ca
:10030c0040f01f81102299490ea802f0c3f904464f
:10031c000021984802f0baf801220021964802f018
:10032c00d9f902f0cdf8954b954a002c08bf13462d
:10033c00944a95491ea802f0f7f91ea802f082f91a
:10034c00924802f07ff90121914801f08bf80021cd
:10035c00904801f087f80021864802f097f84ff09a
:10036c00000adff87092d3e0d9f800a00df1370243
:10037c00002300bf02f8013f0133402bfad1864b1a
:10038c001b688df838301a0a8df839201a0c8df844
:10039c003a201b0e8df83b300121764802f076f89e
:1003ac000eac1ead2146204601f0b4fd1034ac421b
:1003bc00f8d10025009501230eaa40214ff40070be
:1003cc0001f0daf804468df827508df828500aa968
:1003dc000df1270002f0e4f902f0bef810f0800fe6
:1003ec000dd100f00703032b24d010f0200f23d1e4
:1003fc0010f0400f694b6a4a08bf134600e0694b86
:10040c00e4b1d9f8002003939df8283002939df8ad
:10041c0027300193604c236800934ff400736249ba
:10042c001ea802f081f92368023323601ea802f093
:10043c0009f975e05d4be3e75d4be1e7d9f8002086
:10044c0001939df8283000939df8273059491ea838
:10045c0002f06af9eae701240021464802f016f896
:10046c0072b6554f0df1380b079407eb04144ff08f
:10047c000008464645460aaa5946384601f0e6faaf
:10048c000a9b1d440b9b1e440c9b984410370bf18c
:10049c00100bbc42efd162b6484bd3f800b09df8bc
:1004ac0039309df83a40240444ea03249df838304e
:1004bc001c439df83b3044ea0364a8194044404f68
:1004cc00404a0023a0fb070102f08ef8049005ebd4
:1004dc0008003c4a0023a0fb070102f085f80390ba
:1004ec00384a0023a6fb070102f07ef80290364b37
:1004fc001b780193079b009323465a4633491ea849
:10050c0002f012f91ea802f09df801f0d9ff00bf0d
:10051c00d9f80030a3eb0a03b3f57a7fbff424af0c
:10052c002b4b1b78002bf3d0294b00221a70264b37
:10053c001c780f2c8fd94f2c01d824098ce704245c
:10054c008ae700210b4801f0a1ff012200210a4893
:10055c0002f0c0f801f0b4ff084be9e600000020ff
:10056c0000ed00e0000800404c2800003c28000092
:10057c002c2800005c280000fd260000880e0000de
:10058c00840e0000ec0e0000fc0e00003c0f00007e
:10059c00640f00006c0f0000e4090020e00e000066
:1005ac00e80f0000900e0000740f0000ac0e00006d
:1005bc00cc0e0000ac0f000094080020c8090020ed
:1005cc0000ca9a3b006cdc02e0090020ec0f000032
:0805dc00e1090020cc09002018
:020000040000fa
:1005e4002de9f047aeb00746164605914ff00008d6
:1005f400059d2b78002b00f0e08000244ff0ff33a2
:10060400cde909430eab0c9380230b940d932b5d22
:100614000bb1252b30d134b1294622463846254426
:1006240002f028f80595059b1a78252a40f0bc802d
:1006340003f10109cdf814904a46002113782b2bbd
:10064400104602f1010223d02ed8202b24d0232bd4
:1006540026d001b105902a2b2ed001f069fe059a0f
:100664000b900020114601320b78303b092b79d9cd
:10067400002830d005912ee00134c8e7099b43f0ef
:10068400010309930121d9e7099b43f00203f8e729
:10069400099b43f00403f4e7099b43f00803f0e7e4
:1006a400099b43f01003ece72d2be7d0302bebd064
:1006b4000029d2d00590d0e733681a1d1b68326038
:1006c4000130002b05900b9305da099a5b4282f006
:1006d400010209920b93099bda0744bf23f002033a
:1006e4000993059b1a782e2a0fd14ff0000acdf8f2
:1006f40028a05a785d1c2a2a059535d10233059322
:1007040033681a1d1b6832600a9305a801f08cfe39
:10071400059d0390287802f0aff82528039900f08e
:10072400da806138172800f2e080172800f2dd80b3
:10073400dfe810f02b00db00b6004700a700a7009d
:10074400a700db004700db00db00db00db009e00d2
:1007540065008300db00db00c700db005600db0024
:10076400db00740001207de7284601f0e1fd5346db
:100774000a90294601350a78303a092a03d9002b10
:10078400c3d00591c1e70123f3e7324606a801f07f
:1007940047ff002872d06b1c059306aa2b7809a981
:1007a400384602f081f804444444a04540f3a7804d
:1007b400544b4f221a604ff0ff3840462eb0bde82c
:1007c400f0873346012206a801f03ef8002855d0f0
:1007d400013506aa09a93846059502f063f8e2e74f
:1007e4003346002206a801f02ff8002846d0013530
:1007f40006aa09a93846059501f0a8fcd3e73346b3
:10080400002206a801f020f8002837d0013506aaf6
:1008140009a93846059502f045f8c4e73346002295
:1008240006a801f011f848b36b1c05932b7806aaaf
:1008340009a9384600f088fdb5e733460022f021c7
:1008440006a801f001f8c8b1dde906320135134309
:1008540005950bd12c4801f085ff099b00932a498b
:100864000b9b0246384601f0c7f99ce77823dee784
:10087400334608eb040206a801f0b0fa01350595e9
:1008840092e7324606a801f0cbfe0028f6d06b1c96
:10089400059306aa2b7809a9384602f005f882e7e1
:1008a4008029ebd1336801351a1d1b6832608df83d
:1008b40018300595012306aa09a9384601f01afc47
:1008c40071e78029dad13268131d3360013512686b
:1008d40005950023f0e78029d0d1099b00930135c9
:1008e4000b9b059509490122bce700234ff0ff3219
:1008f400cdf8149009930b930a920093f2e7a04663
:1009040076e600bfd809002073280000792800008b
:020000040000fa
:100914002de9f04786468c460846089e15467446df
:100924001946002b40f0c2808242b2fa82f245d9c5
:100934004ab1c2f1200300fa02fc2efa03f39540f7
:1009440043ea0c0c94404fea154ea8b2bcfbfef8e7
:10095400230c0efb18cc08fb00f943ea0c43994521
:1009640028d9eb1808f1ff3704d2994502d9a8f128
:1009740002072b44a3eb0903a4b2b3fbfefc0efb5a
:100984001c330cfb00f044ea0344a04214d92c1994
:100994000cf1ff3304d2a04202d9acf102032c447f
:1009a400241a43ea07401eb1d44000233460736024
:1009b400bde8f0874746dde76346f1e792bb431b9a
:1009c40001214fea154eafb2b3fbfefc200c0efb27
:1009d4001c330cfb07f840ea0343984562d9eb1833
:1009e4000cf1ff3004d2984502d9acf102002b443b
:1009f400a3eb0803a4b2b3fbfefc0efb1c330cfbfd
:100a040007f744ea0344a7424ed92c190cf1ff33eb
:100a140004d2a74202d9acf102032c44e41b43eafa
:100a24000040c0e7c2f1200320fa03f19540904052
:100a34002efa03f303434fea154eafb2b1fbfefcab
:100a44000efb1c10190c0cfb07f841ea0041884509
:100a540004fa02f422d969180cf1ff3004d2884553
:100a640002d9acf102002944a1eb08019bb2b1fb0d
:100a7400fefc0efb1c110cfb07f743ea01439f42eb
:100a84000ed9eb180cf1ff3104d29f4202d9acf11c
:100a940002012b44db1b41ea004192e76046e3e795
:100aa4006146f7e76046a3e76346b7e7834206d9a2
:100ab40016b9002108467be7c6e900e0f9e7b3fa76
:100ac40083f78fb9834201d3724508d8beeb020481
:100ad40060eb030301209c461eb9002168e73846f9
:100ae400fae7c6e9004cf8e7c7f1200cbb4022fa4c
:100af4000cf41c432efa0cf120fa0cf3b840014319
:100b04004fea14490efa07f5b3fbf9f81ffa84fe0d
:100b140009fb18300b0c08fb0efa43ea00439a4514
:100b240002fa07f240d9e31808f1ff3004d29a45db
:100b340002d9a8f102002344a3eb0a0389b2b3fb50
:100b4400f9f809fb183308fb0efe41ea03418e4510
:100b54002cd9611808f1ff3304d28e4502d9a8f1cb
:100b64000203214443ea0040a0fb0298a1eb0e01da
:100b74004145ce46434602d306d14d4504d2b9eb96
:100b8400020e68eb04030138002ea6d0b5eb0e026a
:100b940061eb030101fa0cfc22fa07f34cea0303ac
:100ba400f940c6e9003198e74046c5e74346d9e72e
:020000040000fa
:100bb4002de9f04184b09a4b1c6d14f0007f1cbfea
:100bc4004ff000721a6514f0010f6ed0944b01229d
:100bd4001a655a6d22f001025a65d3f8a43013f055
:100be4007f0f62d08e4bd3f8a450c5f305258d4bef
:100bf400db6805ebc50203ebc20cdcf8003013f034
:100c0400804fdcf8003005eb8501874a02eb810256
:100c1400126814bf23f06043c3f38a431360dcf803
:100c24000020dcf8043013f4001f0bd112f0005f35
:100c340008d005eb85027c4b03eb82031b69012280
:100c44001a7007e005eb8502774b03eb82031b69ff
:100c540000221a70dcf80460744b0fcb04af07e970
:100c64000f00c6f3034606f110030deb030616f856
:100c7400108c6d4eaf0005eb850306eb83035868bb
:100c840042460cf1080101f061fd2f4406eb870692
:100c9400b36883f80080624bc3f8a850644b1b68a8
:100ca4001bb1634b1a685868904714f0100f69d051
:100cb4005b4b10221a655a6d22f010025a65d3f864
:100cc400b43013f07f0f5dd0554bd3f8b450c5f357
:100cd4000525544b1b6905ebc50203ebc20cdcf87c
:100ce400003013f0804fdcf8003005eb85014e4aec
:100cf40002eb8102d2f8a02014bf23f06043c3f3b7
:100d04008a431360dcf80020dcf8043013f4001f7d
:100d140002d112f0005f45d105eb8502424b03eb93
:100d24008203d3f8b03000221a70dcf804603f4b21
:100d34000fcb04af07e90f00c6f3034606f1100317
:100d44000deb030616f8108c374eaf0005eb850348
:100d540006eb8303d3f8a40042460cf1080101f02a
:100d6400f5fc2f4406eb8706d6f8a83083f80080fc
:100d74002b4bc3f8b8502e4b9b681bb12c4b9a6875
:100d8400d868904714f4007f31d0254b4ff400729b
:100d94001a655a6d22f400725a6500234ff0010c53
:100da4001f490ce005eb85021f4b03eb8203d3f8cc
:100db400b03001221a70b8e70133082b10d00cfab6
:100dc40003f2d1f8d850d1f8e0001042f4d0154223
:100dd400f2d0d1f8e00020ea0202c1f8e020ebe70b
:100de400134b9b691bb1124b9a69d869904714f451
:100df400006f11d00a4a4ff400631365d2f8c4306f
:100e0400c3f30423d2f8c420c2f30442934203d2ae
:100e14000133dbb29a42fbd104b0bde8f08100bfdc
:100e2400000400426009002004070020fc270000a1
:040e34008809002009
:020000040000fa
:100e3800257320284e3d256c75293a20746f706cf7
:100e4800616d206d696e2f6f72742f6d6178203d12
:100e580020256c752f256c752f256c75206e7320d9
:100e68007c2063656b697264656b206f7274203dca
:100e780020256c75206e730d0a0000004f4b000092
:100e88004641494c00000000203e3e204255532d6b
:100e98004f464620286861742f41434b20796f6b79
:100ea80029000000203e3e2041434b2d594f4b2046
:100eb800286b6172736920647567756d20796f6b33
:100ec8003f290000203e3e204552524f522d5041ae
:100ed8005353495645000000203e3e205741524e8c
:100ee800494e4700434946542028322c342c362e8c
:100ef8002e2900000d0a3d3d3d2053414d2045352a
:100f0800342043414e2064656d6f207c20726f6ce5
:100f18003a202573207c204145532048572073658b
:100f28006c662d746573743a202573203d3d3d0d24
:100f38000a0000002d2d2d204145532d3132382037
:100f480062656e63686d61726b2028646f6e616e96
:100f5800696d29202d2d2d0d0a000000454e4352a4
:100f68005950540044454352595054005b743d2530
:100f78006c75206d735d2054582069643d30782568
:100f88006c582064656765723d256c75207c20541b
:100f980045433d2575205245433d257525730d0a6a
:100fa800000000005b743d256c75206d735d205456
:100fb800582d4649464f20444f4c552028676f6ea0
:100fc800646572696c656d69796f7229207c20543b
:100fd80045433d2575205245433d257525730d0a2a
:100fe800000000005b743d256c75206d735d205218
:100ff800582064656765723d256c75207c202575d1
:1010080020626c6f6b2028257520422920434f5a97
:101018003a2063656b697264656b3d256c75206960
:101028006f3d256c7520746f706c616d3d256c7516
:06103800206e730d0a009a
:020000040000fa
:02103e00fee7cb
:020000040000fa
:101040006d4b9b7d002b00f0d68010b56b4b9c6ade
:10105000694b5b8b13f0020f16d0684bff2283f8ad
:101060002020022283f82120644b93f820305bb2c9
:10107000b3f1ff3f00f08d80604b93f820305bb2fe
:10108000062b00f09f8010bd5b4b5b8b13f0010fb4
:1010900007d05a4bff2283f82020022283f8212018
:1010a000e2e7554b5b8b13f0040f07d0534bff2245
:1010b00083f82020012283f82120d5e74f4b93f8b5
:1010c00020305bb2032b45d0042b12d0022bcbd1a6
:1010d0004a4b1b6933b1494b9888002180b201f01b
:1010e000dff8c1e7454b9888012180b201f0d8f8bc
:1010f000bae7424a936912699a420bd03f4a926812
:10110000d15c3d4a9162591cd369002bfcd13b4b09
:101110009961a9e7394b5b697bb1384b9b889bb2de
:101120005b0043f00103344a5362d369002bfcd1c6
:10113000324b032283f8202096e72f4a536843f46a
:1011400040335360d369002bfcd12c4b062283f82b
:10115000202089e7294bd9695b69013b8b420bd081
:10116000254ad369002bfcd1234b986a234bda68bc
:1011700050540131d96177e71f4a536843f4e023a3
:101180005360d369002bfcd11c4b062283f820202e
:10119000e6e71a4b002283f82020174a536843f4ed
:1011a00040335360d369002bfcd1134b83221a7652
:1011b000124b5b6a002b3ff466af104b5b6a204614
:1011c000984760e70d4b002283f8202083f8212008
:1011d000094b83221a761a46538b03f03003102be7
:1011e000fad1064b5b6a002b3ff44daf034b5b6ab1
:1011f0002046984747e77047000c00433409002019
:020000040000fa
:10120000474b484a9a611a46136913f0020ffbd004
:10121000454b42f20e229a821a46d36813f0010f10
:10122000fbd0414b00221a74a3f580633f4a9a63b6
:1012300027225a631a46d36b13f0040ffbd1384ba5
:10124000022283f830201a46d36b13f0020ffbd131
:10125000334a136c03f00303032bfad1344b354aa2
:101260005a621a46536813f0080ffbd1304b324aca
:101270009a621a46536813f0100ffbd12f4b0122cc
:101280005a711a46d37813f0010ffbd0284b2c4a21
:101290001a621a46536813f0040ffbd1244b412203
:1012a000c3f89c201a4600bfd2f89c3013f0400fc0
:1012b000fad01f4b4022c3f8a4201a46d2f8a4301b
:1012c00013f0400ffad01a4b4122c3f8dc201a4623
:1012d000d2f8dc3013f0400ffad0154b4222c3f89d
:1012e000f0201a46d2f8f03013f0400ffad0104b2d
:1012f0004122c3f814211a46d2f8143113f0400fda
:10130000fad00e4b0f4a1a614df2ff725a610e4a23
:101310009a614ff41052da6108221a62704700bfd6
:101320000010004006a650000014004060000100bc
:10133000001c0040010101000701020000080040fc
:0c13400006010100fffffd0056820100c5
:020000040000fa
:10134c002de9f04f8bb00d460493d1e901132f68b2
:10135c00d5f80c9003900029a8bf27f002079246fd
:10136c00b8bf012117f010020592dae9006232d001
:10137c0056ea02002fd0a3f1020b2c69029617f04b
:10138c00080004f1ff3418bf0bf1ff3b904600221c
:10139c0009f8042006905a46012c1edc059a002af6
:1013ac0051d1069a1ab1013c202209f804202a696d
:1013bc0003980097013a121b09eb040100f018fc8a
:1013cc00039b5b68db0503d56b689842b8bf184676
:1013dc000bb0bde8f08f9b46cfe7029850ea0800af
:1013ec0008d1a1eb0b001044002803dc002ad5dd4a
:1013fc00b807d3d50298049e00f00f000928a6f177
:10140c00410cd4bf30305730bcf1190f04f1ff340c
:10141c000ed840f0200cacf1610cbcf1190f07d8c0
:10142c00cde90813079201f02afadde90813079aaf
:10143c0009f804000298060946ea0870013a02907d
:10144c004fea1818a8e7dae900210a43a9d009ebfa
:10145c000402049902f8011c023c302209f8042011
:02146c009fe7f8
:020000040000fa
:02146e00fee797
:020000040000fa
:101470002de9f04fc7b006463e4801f00df80023b5
:1014800042934393449345934ff008093ea942a8e1
:1014900000f046fdb9f10109f8d14ff47a78002740
:1014a0000697049705974ff0ff3a079672b63eae3f
:1014b00042ad3baa3146284600f0cefa62b63c9bcc
:1014c0003b9c1c443d9a1444a24528bfa246a1451a
:1014d00038bfa146049aa418059a42f1000b04945f
:1014e000cdf814b013eb070c069b43f1000e6746d2
:1014f000cdf818e096e80f0085e80f00b8f1010874
:10150000d4d1079e4ff47a7200236046714601f0f1
:1015100071f8194d194a0023a0fb050101f06af882
:101520000390164a0023a9fb050101f063f802901d
:101530004ff47a7200232046594601f05bf80f4ab7
:101540000023a0fb050101f055f801900b4a002390
:10155000aafb050101f04ef800904ff47a73324671
:10156000074909a801f0e6f809a801f071f847b0a9
:10157000bde8f08f5c28000000ca9a3b006cdc02da
:04158000380e000021
:020000040000fa
:1015840038b59df810c0bcf1010f01d9002038bd59
:1015940096463a4ad2f8c42012f4001f6cd1374a56
:1015a400d2f8c450c5f30445354a946905ebc50225
:1015b40004ebc204b0f5006f26bf20f0604040f099
:1015c4008040800420600a46402928bf4022082920
:1015d4000ed90c291ad910291ad914291ad918295b
:1015e4001ad920291ad930298cbf0f200e2000e0e7
:1015f400104600046060022b12d0012b15d0bcf100
:10160400030f1cd8dfe80cf0163316330920f0e77b
:101614000a20eee70b20ece70c20eae70d20e8e7d0
:10162400636843f440136360e9e7636843f40013b9
:101634006360e4e7714604f1080001f087f8114a99
:1016440013780133dbb21370626842ea036343f434
:1016540000036360012000fa05f5084bc3f8e0506d
:10166400c3f8d0505a6d42f400725a658fe723686c
:1016740043f000532360e2e7002088e700040042bf
:0816840060090020de090020ce
:020000040000fa
:10168c00a80900201c00000000000000de0900205a
:10169c00010000000000000060090020480000006c
:1016ac0000000000040700204001000000000000c2
:1016bc00340900202c00000000000000d408002099
:1016cc006000000000000000df09002001000000a5
:1016dc0000000000dc0900200200000000000000f7
:1016ec00940800204000000000000000e0090020e9
:1016fc000100000000000000c409002008000000e8
:10170c0000000000e10900200100000000000000c2
:10171c00cc090020040000000000000000000020a4
:10172c000407000000000000e40900200400000091
:10173c000100000002000000d0090020040000009d
:10174c0000000000440800205000000000000000d1
:10175c00d409002008000000000000000000000078
:10176c0000000000666666666666666666666666a5
:020000040000fa
:10177c0010b43149cb6823f4e0631b041b0c43f019
:10178c00bf6343f40033cb60bff35f8f62b62b4b68
:10179c00e02283f82e234ff48040586083f82f23e7
:1017ac004ff40040586083f830234ff480345c6071
:1017bc0083f831234ff400345c6083f836234ff404
:1017cc0080045c6083f837234ff400045c6083f87a
:1017dc0038234ff080745c6083f839234ff0007429
:1017ec005c6083f84a234ff480649c6083f84b233d
:1017fc004ff400649c6083f84c234ff480549c603d
:10180c0083f84d234ff400549c6083f84f23986069
:10181c004b6a43f480234b624b6943f010034b61da
:10182c004b6a43f400334b624b6a43f480334b6294
:10183c005df8044b704700bf00ed00e000e100e0f4
:020000040000fa
:10184c00902910b50fdc7f2913dd8039102910d8b1
:10185c00dfe801f02b2b360f110f0f0f200f0f0f9e
:10186c000f0f0f0f3600c02944d0f02942d0a02909
:10187c0021d000200de019682ab10a1d1a60b1f9b7
:10188c000030da1702e00c1d1c600b88c0e9003236
:10189c00012010bd196822b10a1d1a6091f900309f
:1018ac00efe70c1d1c600b78f0e71968f2b10a1d0c
:1018bc001a600b68e5e71a68111d19601368e0e7f8
:1018cc00196852b1073121f0070101f108021a60c1
:1018dc00d1e90023c0e90023dae7ca1d22f0070290
:1018ec0002f108011960d2e90023f3e70c1d1c601a
:1018fc000b68cbe71a68111d19601368036000238d
:04190c004360c5e788
:020000040000fa
:1019100010b5044640f20472002100f05bff254a36
:10192000936943f001039361936913f0010ffbd0b6
:10193000204a936943f0020393611f4bdc60d9682e
:1019400089b241f0004141f40021c2f8a01004f531
:1019500010711961196989b241f0004141f4002107
:10196000c2f8b01004f590619961996989b241f0ab
:101970000061c2f8c01004f5d861d961d96989b293
:1019800041f40021c2f8f01004f5e0641c62196a09
:101990000a4808601b6a9bb243f48033c2f8843063
:1019a000936923f001039361936913f0010ffbd155
:1019b00010bd00bf000400426009002020000008a4
:020000040000fa
:1019c00038b5214b01229a611a46936913f0010f31
:1019d000fbd01d4b9a6942f002029a6141f27742b4
:1019e000da601a4ada617722c3f8bc200722c3f80a
:1019f000c8201422c3f880209a6942f440729a6188
:101a00009a6922f001029a611a46936913f0010f54
:101a1000fbd10d4b00249c650122da654ff000726a
:101a20005a650b4d2c606c60ac604ff4a07221467f
:101a3000084800f0cffeec602c616c61ac61ec6199
:101a40002c626c6238bd00bf000400421d58093a88
:081a50006009002004070020da
:020000040000fa
:101a58002de9f8430f461546204b0122da71022280
:101a68001a7100221a721e4b5e68044600f11008b3
:101a7800dff86890204600f07ffec9f8380004348b
:101a88004445f7d1164b5968144a137943f00103ba
:101a98001371d37913f0010ffbd0114bd3f804c0a5
:101aa8000e4b00221a723b4610370c4ca06b187074
:101ab800020a5a70020c9a70000ed8700433bb42a6
:101ac800f4d1074b5b688e1b2e60aceb010169609b
:101ad800a3eb0c03ab60bde8f88300bf0024004211
:041ae800001000e00a
:020000040000fa
:101aec0070b49df80c401cb1012c1dd0002019e0e5
:101afc001b4ed6f8a440c4f305241a4d04eb840cf9
:101b0c0005eb8c0cccf80000ccf80420ccf80810b9
:101b1c00ccf80c30049bccf81030736d43f00103ff
:101b2c007365012070bc70470d4ed6f8b440c4f3f9
:101b3c00052c0c4d0ceb8c0405eb8404c4f8a000b4
:101b4c00c4f8a420c4f8a810c4f8ac30049bc4f8a2
:101b5c00b030736d43f0100373650120e2e700bff2
:081b6c00000400420407002000
:020000040000fa
:101b740008b5194b9847194b9847eff3108172b683
:101b8400174ad2f8883043f47003c2f88830bff3a0
:101b94004f8fbff36f8f01b962b6124a936823f077
:101ba40001039360d36813f0010ffbd10d4b242282
:101bb4005a6001229a6000f0a1fc0b4b23f07f03d2
:101bc400074a9360094b9847094b9847094b984734
:101bd400fef75afbfee700bfbb280000bb2800004d
:101be40000ed00e000600041000000009d200000c6
:081bf400bb280000bb28000023
:020000040000fa
:101bfc002de9ff471d460c9b13f0010806460f46c6
:101c0c00144601d195420bd822463946304600f095
:101c1c002dfda54204d82546284604b0bde8f08722
:101c2c00a5eb04094a46102a28bf10222021684639
:101c3c00ca4600f0c9fd00bfbaf10f0f0ed809f06b
:101c4c000f026946304600f011fdb8f1000fe3d1e8
:101c5c0022463946304600f009fddde71022694680
:0c1c6c00304600f003fdaaf1100ae5e785
:020000040000fa
:101c78001b4b1b7d002b31d010b5194a9368516856
:101c8800184a127e12f0010f15d0994213d915493e
:101c980013484a6802f00702012a026814bfd25c9e
:101ca80032f813208a62013344680a7e12f0010f69
:101cb80001d09c42edd80a4a936052689a420cd8e7
:101cc800074b00221a755a60064a01211175db6814
:101cd8001bb1034b1869db68984710bd704700bffc
:081ce800d40800200030004088
:020000040000fa
:101cf0001b4b1b7d002b31d010b5194a93685168de
:101d0000184a127e12f0010f15d0994213d91549c5
:101d100013484a6802f00702012a026814bfd25c25
:101d200032f813208a62013344680a7e12f0010ff0
:101d300001d09c42edd80a4a936052689a420cd86e
:101d4000074b00221a755a60064a01211175db689b
:101d50001bb1034b1869db68984710bd704700bf83
:081d60000409002000200141ec
:020000040000fa
:101d68002de9f84f0446dde90a9a6668d4f80c8034
:101d780024690c9f013c1946002e4ff00003d7f848
:101d880000b008f804301046b8bf01264d460123bc
:101d9800002c03dcdbb12046bde8f88f50ea0102d5
:101da80009d1a6eb09022a44002a04dc002df1dd42
:101db8001bf0020feed052464feaea7300f016fc11
:101dc800013c1346303208f80420013de0e73b6847
:081dd80023f010033b60dee77d
:020000040000fa
:101de000902910b50fdc7f2911dd803910290ed81c
:101df000dfe801f00f0f250d170d0d0d1e0d0d0d58
:101e00000d0d0d0d2500a02903d0c02901d0002003
:101e100006e019680c1d1c600b6803601a60012045
:101e200010bd19680c1d1c600b6803601a80f6e772
:101e300019680c1d1c600b6803601a70efe71968c5
:101e40000c1d1c600b680360d117c3e90021e6e795
:020000040000fa
:101e500008b5174b93f82c30cbb1154bda691b6ad8
:101e6000934214d2124b986a124a916a1b6a5268c2
:101e700002f00702012a0e4a926914bfd15422f8d7
:101e8000131001330a4a1362d2699a4200d008bd86
:101e9000074b002283f82c20da61064a8421117551
:101ea0005b6a002bf3d0024b5b6a9847efe700bff9
:081eb000d408002000300040be
:020000040000fa
:101eb80008b5174b93f82c30cbb1154bda691b6a70
:101ec800934214d2124b986a124a916a1b6a52685a
:101ed80002f00702012a0e4a926914bfd15422f86f
:101ee800131001330a4a1362d2699a4200d008bd1e
:101ef800074b002283f82c20da61064a84211175e9
:101f08005b6a002bf3d0024b5b6a9847efe700bf90
:081f1800040900200020014132
:020000040000fa
:101f2000f8b50d46164b0122da7102221a71002211
:101f30001a72044600f110061f46204600f020fced
:101f4000b8630434b442f8d10d4a137943f0010365
:101f50001371d37913f0010ffbd0094b00221a72d1
:101f60002b4610350648826b1a70110a5970110cf5
:101f70009970120eda700433ab42f4d1f8bd00bf91
:041f800000240042f7
:020000040000fa
:101f8400144b01221a601a46d369002bfcd1114b61
:101f94004ff480725a601a46d369002bfcd10d4b62
:101fa4000922da600c4a1a601a46d369002bfcd164
:101fb400084b10225a831a46d369002bfcd1074bd5
:101fc400002283f8212083f82020024b83229a7573
:101fd400704700bf000c00431600100034090020b5
:020000040000fa
:101fe40008b5154b9b7dd3b1134a137edbb2927daa
:101ff40012f0800f14d1104a137edbb2927d12f0de
:10200400010f02d013f0010f10d10b4a137edbb283
:10201400927d12f0040f02d013f0040f09d108bd11
:1020240013f0800fe7d000f0c7f9e4e7fff722fed2
:0c203400ebe7fff70bfff2e70030004085
:020000040000fa
:1020400008b5154b9b7dd3b1134a137edbb2927d4d
:1020500012f0800f14d1104a137edbb2927d12f081
:10206000010f02d013f0010f10d10b4a137edbb227
:10207000927d12f0040f02d013f0040f09d108bdb5
:1020800013f0800fe7d000f0b5f9e4e7fff730fe7a
:0c209000ebe7fff711fff2e70020014131
:020000040000fa
:10209c000e4a38b5002313600d4a0e4c13600e4add
:1020ac000e4d13600e4a13600e4a13600e4a5362b3
:1020bc0013610123936000f0fcfb00f0fafbac42cf
:1020cc0000d338bd54f8043b9847f8e7d4090020f6
:1020dc0050080020700200004c0800207402000020
:0c20ec0044080020480800205408002090
:020000040000fa
:1020f8002de9ff41134ed1f80080b788adf80c7078
:1021080005463068029002acb0798df80e00002abe
:1021180018bf1446d1e901671a461bb9204600f0da
:102128001ffb0246002e02dbb24228bf3246cdf822
:1021380000803b4621462846fff75cfd04b0bde819
:08214800f08100bf6c280000cb
:020000040000fa
:10215000f0b50c46d1e9011687b023680593002934
:10216000a4bf23f00203059305abe76802930a239b
:10217000cde900630546d2e900232046fff7f4fdd0
:102180002269059b0093013a3346121a39182846f2
:10219000fff734fd6b68db0503d563689842b8bf71
:0621a000184607b0f0bd77
:020000040000fa
:0221a600fee752
:020000040000fa
:1021a800114b124a1a604df6ad029a814ff4403233
:1021b8005a601a46d369002bfcd10b4a136843f0c6
:1021c80002031360d369002bfcd1094b00229a61ea
:1021d800da611a6283f82c205a621a605a609a608f
:1021e8001a75da60da857047003000400401204033
:0421f800d4080020e7
:020000040000fa
:1021fc00114b124a1a604df6ad029a814ff44032df
:10220c005a601a46d369002bfcd10b4a136843f071
:10221c0002031360d369002bfcd1094b00229a6195
:10222c00da611a6283f82c205a621a605a609a603a
:10223c001a75da60da8570470020014104011040fc
:04224c000409002061
:020000040000fa
:1022500010b54ff0ff3c88b00c4611461a464ff4bb
:102260008173cde901c300b96846cde9030454b1d7
:10227000631e002c059308da084b4f221a604ff0ba
:10228000ff3008b010bd2346f3e70023cde9060078
:10229000037001a800f040faf3e700bfd80900205e
:020000040000fa
:1022a000104b00229a61da610f4b83221a765a682a
:1022b00022f480225a601a46d369002bfcd161b106
:1022c000084b032283f8202041ea4001064b596263
:1022d0001a46d369002bfcd17047024b042283f8c5
:0c22e0002020f1e734090020000c00432e
:020000040000fa
:1022ec00104b012283f8cc2083f8cd2083f8d82022
:1022fc0083f8d920772183f8b610332183f8bc10ea
:10230c004ff40051c3f80011002183f84d1183f8ec
:10231c00361183f8c82183f8c921222283f8b4210d
:08232c00704700bf0080004172
:020000040000fa
:102334000278202a034600f10100f9d0a2f1090134
:102344000429f5d92b2a06d02d2a13d101210133d2
:10235400013b002006e00021f9e700bf00eb80000c
:10236400c2eb400013f8012f303a092af6d901b91b
:08237400404270470021ebe735
:020000040000fa
:10237c0010b5054c237833b9044b13b10448aff3b3
:10238c0000800123237010bda8090020000000006c
:10239c000000000008b5034b1bb103490348aff321
:1023ac00008008bd00000000ac0900200000000007
:020000040000fa
:1023bc000b4b5b8b13f0070300d1704710b5094c26
:1023cc00e38500f0e1f8064b84221a75002384f8ab
:1023dc002c30636a13b1a06a636a984710bd00bfc2
:0823ec0000300040d40800207d
:020000040000fa
:1023f4000b4b5b8b13f0070300d1704710b5094cee
:10240400e38500f0ddf8064b84221a75002384f876
:102414002c30636a13b1a06a636a984710bd00bf89
:08242400002001410409002021
:020000040000fa
:10242c0030b50c4a0146002012f810301bb902ebf3
:10243c004002507830bd0c6825789d4209bf02ebf4
:10244c004003431c5878013414bfd8b20c600a28de
:08245c00ead9efe79627000022
:020000040000fa
:102464000a4b01221a601a46136913f0010ffbd1bb
:10247400064b18221a6003221a73054ada613322c2
:102484009a721a461369002bfcd170470038004039
:04249400786666669a
:020000040000fa
:1024980070b50b4b00241c60890219601a6842f061
:1024a80002021a6005461e46284600f065f9a31c7c
:1024b80006eb8303586001340435042cf4d170bd55
:0424c80000240042aa
:020000040000fa
:1024cc0000b583b0064b019301230093054b064adc
:1024dc0006490748fff704fb03b05df804fb00bf97
:1024ec00df090020dc09002094080020e00900200e
:0424fc00c4090020ef
:020000040000fa
:1025000038b50a480a4d016821b9436813b900f08b
:10251000d5f938bd0389426855f8233000f10c0421
:102520002046984704eb8000ede700bf8c160000c2
:04253000c0270000c0
:020000040000fa
:1025340008b500f069f9fff7d7fefef75ffefff775
:102544005bfefff72ffe00f0b4f9fff719fdfff76c
:1025540035fa00f0aff9fff783fffff70df908bd77
:020000040000fa
:102564000a4b586c20f4605020f018004004400cd2
:102574009b6913f0010f08d0044a936923f0010307
:102584009361936913f0010ffbd17047000400427b
:020000040000fa
:102594000a4b5b8b13f0070f0ed0084b80221a7680
:1025a40007225a831b7e13f0040f05d0034b9a6a4b
:1025b4001a7e12f0040ffad1704700bf00300040b9
:020000040000fa
:1025c4000a4b5b8b13f0070f0ed0084b80221a7650
:1025d40007225a831b7e13f0040f05d0034b9a6a1b
:1025e4001a7e12f0040ffad1704700bf0020014197
:020000040000fa
:1025f40053b94ab9002908bf00281cbf4ff0ff3166
:102604004ff0ff3000f052b9adf1080c6de904ce83
:10261400fef77ef9ddf804e0dde9022304b070473b
:020000040000fa
:10262400812903dc7f2903dc002070478329fbd147
:102634001368073323f0070303f108011160d3e99a
:0a2644000023c0e9002301207047c5
:020000040000fa
:02264e00fee7a5
:020000040000fa
:10265000017849b1074a137e13f0010ffbd0916254
:1026600010f8011f0029f6d1024a137e13f0020f61
:08267000fbd07047002001417e
:020000040000fa
:1026780038b503699a4228bf1a460446154652b12e
:10268800406900f061f8636922692b44521b22619a
:08269800002263611a7038bdd5
:020000040000fa
:1026a000f0b500244f1ea24209d0651c035d7e5d7b
:1026b000b34202d00a5d981af0bd2c46f3e7002021
:0226c000fae737
:020000040000fa
:1026c20010b50023934206d113f0030018bf012076
:0e26d20000eb930010bdc45ccc540133f2e762
:020000040000fa
:1026e00048b110b4044b43f8320003ebc203596005
:0c26f0005df8044b70477047880900201b
:020000040000fa
:1026fc00034b1a68034b1a60034b01221a70704784
:0c270c00cc090020c8090020e1090020d1
:020000040000fa
:1027180013b50446019201aafdf760ff636813f040
:0c272800100f18bf4ff0ff3002b010bdc2
:020000040000fa
:102734000eb403b503aa52f8041b019200f0aaf8e0
:0a27440002b05df804eb03b070472b
:020000040000fa
:02274e00fee7a4
:020000040000fa
:102750004ab1431e84460a4411f8010b03f8010fe5
:082760009142f9d16046704777
:020000040000fa
:1027680003783bb1034600bf13f8012f002afbd1c1
:08277800181a7047184670475b
:020000040000fa
:10278000427883781b0443ea022302781343c0781b
:0627900043ea00607047ff
:020000040000fa
:1027960068076c094c836a9074a07ac000806888c8
:0627a60000846c8200813a
:020000040000fa
:1027ac00034b1a6c02701b6cc3f306230b7070473f
:0427bc0000040042d3
:020000040000fa
:1027c000e9270000c3260000a5280000a528000076
:0427d000a528000038
:020000040000fa
:1027d40032b1c9b20244034603f8011b9a42fbd149
:0427e400704700bf7b
:020000040000fa
:1027e8000a440023914201d10020704701f8013bbf
:0227f800f8e700
:020000040000fa
:0227fa00fee7f8
:020000040000fa
:1027fc000001020304050607080c101418203040d1
:020000040000fa
:10280c00024b4ff482721a80704700bf00400041a7
:020000040000fa
:10281c00024a136801331360704700bfcc090020d3
:020000040000fa
:10282c0069c4e0d86a7b0430d8cdb78070b4c55a7f
:020000040000fa
:10283c0000112233445566778899aabbccddeeff94
:020000040000fa
:10284c00000102030405060708090a0b0c0d0e0f04
:020000040000fa
:10285c002b7e151628aed2a6abf7158809cf4f3ca8
:020000040000fa
:0f286c00286e756c6c2900286e696c2900250098
:020000040000fa
:0e287c00a0f14103192b98bf40f020007047d7
:020000040000fa
:0e288a00a0f16103192b98bf00f05f007047aa
:020000040000fa
:0c28980013460a466ff00041fff7d6bc63
:020000040000fa
:0428a4000020704759
:020000040000fa
:0428a8000020704755
:020000040000fa
:0428ac000020704751
:020000040000fa
:0428b000704700bfae
:020000040000fa
:0228b400fee73d
:020000040000fa
:0228b600704769
:020000040000fa
:0228b800704767
:020000040000fa
:0228ba00704765
:020000040000fa
:0228bc00704763
:020000040000fa
:0228be00704761
:020000040000fa
:0200000400807a
:044000003912003c35
:020000040000fa
:0200000400807a
:044004008000a82a66
:020000040000fa
:0200000400807a
:04400800ffffffffb8
:00000001FF
