:020000040000fa
:10000000f0ff0320890f00008b150000af170000e0
:10001000a31a0000f71a0000271b000000000000d0
:10002000000000000000000000000000631b000052
:10003000331a000000000000631b0000631b000077
:10004000631b0000631b0000631b0000631b0000b8
:10005000631b0000631b0000631b0000631b0000a8
:10006000631b0000631b0000631b0000631b000098
:10007000631b0000631b0000631b0000631b000088
:10008000631b0000631b0000631b0000631b000078
:10009000631b0000631b0000631b0000631b000068
:1000a000631b0000631b0000631b0000631b000058
:1000b000631b0000631b0000631b0000631b000048
:1000c000631b0000631b0000631b0000631b000038
:1000d000631b0000631b0000631b0000631b000028
:1000e000631b0000631b0000000000000000000014
:1000f00000000000631b0000851400008514000050
:100100008514000085140000631b0000631b0000c1
:10011000631b0000631b0000dd140000dd14000001
:10012000dd140000dd140000631b0000631b0000f1
:10013000631b0000631b0000631b0000631b0000c7
:10014000631b0000631b0000631b0000631b0000b7
:10015000631b0000631b0000631b0000631b0000a7
:10016000631b0000631b0000bd0a0000bd0a000005
:10017000bd0a0000bd0a0000631b0000510800001a
:10018000631b0000631b0000631b0000631b000077
:10019000631b0000631b0000631b0000631b000067
:1001a000631b0000631b0000631b0000631b000057
:1001b000631b0000631b0000631b0000631b000047
:1001c000631b0000631b0000631b0000631b000037
:1001d000631b0000631b0000631b0000631b000027
:1001e000631b0000631b0000631b0000631b000017
:1001f000631b0000631b0000631b0000631b000007
:10020000631b0000631b0000631b0000631b0000f6
:10021000631b0000631b0000631b0000631b0000e6
:10022000631b0000631b0000631b0000631b0000d6
:10023000631b0000631b0000631b0000631b0000c6
:10024000631b0000631b0000631b0000631b0000b6
:10025000631b0000631b0000631b0000631b0000a6
:04026000631b00001c
:020000040000fa
:10026400f8b500bff8bc08bc9e467047d51700001f
:10027400f8b500bff8bc08bc9e467047b117000033
:020000040000fa
:0802840010030000010000005e
:020000040000fa
:10028c002de9f041aeb006461546059100270599bb
:10029c000b78002b00f0fa8000244ff0ff33cde9ef
:1002ac0009430eab0c9380230b940d930b5d0bb198
:1002bc00252b26d134b12246304601f0c9fb059bd3
:1002cc0023440593059b1a78252a40f0d78003f127
:1002dc000108cdf81480059803782b2b1ad025d85b
:1002ec00202b1bd0232b1dd02a2b27d001f036fa24
:1002fc000b90059b1a78303a092a2ed801330593b6
:10030c00f7e70134d2e7099b43f00103013009936d
:10031c000590e0e7099b43f00403f7e7099b43f0e2
:10032c000803f3e7099b43f01003efe72d2bead00a
:10033c00302bd9d1099b43f00203e7e72b681a1d38
:10034c001b682a600130002b05900b9305da099a83
:10035c005b4282f0010209920b93099bda0744bfbe
:10036c0023f002030993059b1a782e2a0dd1002243
:10037c00581c0a9205905a782a2a25d102330593e3
:10038c002b681a1d1b682a600a9305a801f04afa0b
:10039c00059b0390187801f0effb6928039979d03d
:1003ac0032dc632800f0cb8019dc252800f0d980e2
:1003bc00612853d000234ff0ff32cdf814800993fd
:1003cc000b930a920093d4e001f0c8f90a90059bb4
:1003dc001a78303a092ad8d801330593f7e76428fc
:1003ec0058d06728e6dc2a4606a801f007fb00284f
:1003fc0000f0a180059b5a1c05921b7806aa09a93e
:10040c00304601f0cefb38e0702873d015dc6e2836
:10041c0000f08c806f28cdd12b46002206a800f06e
:10042c000bfd002800f08780059b06aa013309a963
:10043c003046059301f0b3fb1fe075283ad07828bd
:10044c0048d07328b6d1802975d1059b2a68013311
:10045c000593131d2b60126800237de02a4606a825
:10046c0001f0ccfa002866d0059b5a1c05921b782b
:10047c0006aa09a9304601f094fb04443c44a74267
:10048c007add3e4b4f221a604ff0ff3738462eb0c4
:10049c00bde8f0812b46012206a800f0cdfc002817
:1004ac0049d0059b06aa013309a93046059301f0f2
:1004bc0076fbe2e72b46002206a800f0bdfc0028e4
:1004cc0039d0059b06aa013309a93046059301f0e2
:1004dc002bf8d2e72b46002206a800f0adfc50b357
:1004ec00059b5a1c05921b7806aa09a9304601f0f7
:1004fc0058fbc2e72b460022f02106a800f09cfc1a
:10050c00c8b1059b01330593dde9062313430bd1d9
:10051c001b4801f0ebfa099b009319490b9b02460f
:10052c00304600f06ffda8e77823dde72b463a193b
:10053c0006a800f0e9fd059b013305939ee7802991
:10054c00f9d1059b013305932b681a1d1b682a6092
:10055c008df8183006aa012309a9304601f023fbb7
:10056c008be78029e7d1059b01330593099b009309
:10057c000b9b04490122d3e7274688e6880200201a
:08058c009e1b0000a41b0000ef
:020000040000fa
:100594002de9f04f099f154604468e461e46002b52
:1005a40040f0cc808a42b2fa82fc4cd9bcf1000ff4
:1005b4000bd0ccf1200801fa0cfe20fa08f802fa5c
:1005c4000cf548ea0e0e00fa0cf44fea15491ffa2e
:1005d40085f8befbf9fa210c09fb1ae30afb08fbb8
:1005e40041ea03439b452ad9eb180af1ff3004d2b0
:1005f4009b4502d9aaf102002b44a3eb0b03a4b23e
:10060400b3fbf9f209fb123302fb08f844ea034492
:10061400a04516d92c1902f1ff3303d2a04501d904
:10062400931e2c44a4eb080443ea004027b124faa7
:100634000cf400233c607b603146bde8f08f5046eb
:10064400dbe71346eee702b9ffdebcf1000f2ed163
:100654008b1a01264fea154eaab2b3fbfef8210c01
:100664000efb183308fb02f941ea0343994561d9ab
:10067400eb1808f1ff3004d2994502d9a8f1020021
:100684002b44a3eb0903a4b2b3fbfef10efb11331d
:100694004a4344ea0344a2424ed92c1901f1ff33e0
:1006a40003d2a24201d98b1e2c44a41abce7ccf17c
:1006b400200e02fa0cf521fa0ef901fa0cf320fad5
:1006c4000efe4eea03034fea154800fa0cf4b9fb98
:1006d400f8f11ffa85fe08fb1192180c01fb0ef6c7
:1006e40040ea0242964221d9aa1801f1ff3003d20e
:1006f400964201d9881e2a44921b9bb2b2fbf8f998
:1007040008fb192209fb0efe43ea02439e450fd95a
:10071400eb1809f1ff3604d29e4502d9a9f102066d
:100724002b44a3eb0e0346ea004693e70846e3e7af
:100734004e46f6e74046a4e70b46b6e78b4206d999
:10074400002f7ed00026c7e90001304674e7b3fad3
:1007540083fcbcf1000f0fd18b4201d3824209d834
:10076400841a61eb030e0120002f6dd0c7e9004eff
:10077400002661e76046f7e7ccf1200e03fa0cf39c
:1007840022fa0ef521fa0ef41d4301fa0cf320fab5
:100794000ef10b434fea154a00fa0cf6b4fbfaf9d2
:1007a4001ffa85f80afb19401c0c09fb08f144eafe
:1007b4000044a14202fa0cf23fd92c1909f1ff308e
:1007c40004d2a14202d9a9f102002c44641a9bb2ba
:1007d400b4fbfaf90afb194409fb08f843ea04419b
:1007e40088452cd9691809f1ff3304d2884502d908
:1007f400a9f10203294443ea0040a1eb0801a0fb4c
:1008040002894945c2464c4602d306d1464504d224
:10081400b8eb020a69eb05040138afb1b6eb0a0381
:1008240061eb040606fa0efe23fa0cf34eea030308
:1008340026fa0cf6c7e900369ae74846c6e74b465f
:0c084400d9e73e463846f7e63e46f5e6aa
:020000040000fa
:100850002de9f04385b0944b1c6d14f0007f1cbf54
:100860004ff000721a6514f0010f61d08e4b012217
:100870001a655a6d22f001025a65d3f8a43013f0bc
:100880007f0f55d0884bd3f8a450c5f30525874b6f
:10089000d96805ebc503db00cf18ca5812f0804faa
:1008a000ca5805eb85004fea8000814e305814bfce
:1008b00022f06042c2f38a420260ca587b6813f495
:1008c000001f03d112f0005f40f0e58005eb8503c7
:1008d000774a02eb83031b6900221a707e68754b0e
:1008e0000fcb0df1100c0ce90f00c6f30346664464
:1008f00016f8106cdff8b8814fea850909eb05039b
:1009000008eb83035868324607f1080101f0caf882
:1009100009eb050308eb83039b681e70624bc3f869
:10092000a850654b1b681bb1634b1a685868904709
:1009300014f0100f63d05c4b10221a655a6d22f030
:1009400010025a65d3f8b43013f07f0f57d0564bce
:10095000d3f8b450c5f30525544b196905ebc5030d
:10096000db0001eb030cca5812f0804fca5805ebac
:1009700085004f4e06eb8000d0f8a00014bf22f097
:100980006042c2f38a420260ca58dcf8043013f4b1
:10099000001f02d112f0005f73d105eb8503444aba
:1009a00002eb8303d3f8b03000221a70dcf8046045
:1009b000404b0fcb04af07e90f00c6f303463e449c
:1009c00016f8108c3a4eaf007b1906eb8303d3f870
:1009d000a40042460cf1080101f064f82f4406eb34
:1009e0008706d6f8a83083f800802f4bc3f8b8509c
:1009f000314b9b681bb1304b9a68d868904714f410
:100a0000007f12d0284b4ff400721a655a6d22f401
:100a100000725a6500230126234a27e0264b9b6972
:100a20001bb1254b9a69d869904714f4006f11d017
:100a30001d4a4ff400631365d2f8c430c3f3042396
:100a4000d2f8c420c2f30442934203d20133dbb292
:100a50009a42fbd105b0bde8f083d2f8e00020ea6d
:100a60000101c2f8e0100133082bd7d006fa03f1d8
:100a7000d2f8d850d2f8e0000842f4d00d42ecd1c0
:100a8000f1e705eb85030a4a02eb8303d3f8b030a4
:100a900001221a708ae705eb8503054a02eb8303fe
:100aa0001b6901221a7019e7000400421c02002091
:0c0ab00000000020641b00004402002035
:020000040000fa
:100abc006c4b9b7d002b00f0d38010b56a4b9c6a6d
:100acc00684b5b8b13f0020f16d0674bff2283f839
:100adc002020022283f82120634b93f820305bb254
:100aec00b3f1ff3f00f08a805f4b93f820305bb28c
:100afc00062b00f09c8010bd5a4b5b8b13f0010f42
:100b0c0007d0594bff2283f82020022283f82120a2
:100b1c00e2e7544b5b8b13f0040f07d0524bff22d0
:100b2c0083f82020012283f82120d5e74e4b93f83f
:100b3c0020305bb2032b42d0042b10d0022bcbd134
:100b4c00494b1b692bb1484b9888002100f0bcfd28
:100b5c00c2e7454b9888012100f0b6fdbce7424a3c
:100b6c00936912699a420bd03f4a9268d15c3d4a14
:100b7c009162591cd369002bfcd13b4b9961abe7bb
:100b8c00394b5b6973b1384b9b885b0043f00103b5
:100b9c00344a5362d369002bfcd1334b032283f8c4
:100bac00202099e72f4a536843f440335360d369ac
:100bbc00002bfcd12c4b062283f820208ce72a4bef
:100bcc00d9695b69013b8b420bd0264ad369002b58
:100bdc00fcd1244b986a244bda6850540131d9610a
:100bec007ae7204a536843f4e0235360d369002b1f
:100bfc00fcd11d4b062283f82020e6e71a4b00227d
:100c0c0083f82020174a536843f440335360d36968
:100c1c00002bfcd1134b83221a76134b5b6a002bef
:100c2c003ff469af104b5b6a2046984763e70e4b65
:100c3c00002283f8202083f821200a4b83221a7685
:100c4c001a46538b03f03003102bfad1064b5b6a18
:100c5c00002b3ff450af044b5b6a204698474ae7a1
:0c0c6c00704700bf000c0043f0010020a6
:020000040000fa
:100c7800364b4af206629a6103f5806342f20e220d
:100c88009a8200221a7403f50063314a5a621a469e
:100c9800536813f0080ffbd12e4b01225a711a46e4
:100ca800d37813f0010ffbd02b4b2c4a1a621a464b
:100cb800536813f0040ffbd1274b294a9a621a464e
:100cc800536813f0100ffbd1234b4122c3f89c202b
:100cd8001a4600bfd2f89c3013f0400ffad01e4bd2
:100ce8004022c3f8a4201a46d2f8a43013f0400fcb
:100cf800fad0194b4122c3f8dc201a46d2f8dc306e
:100d080013f0400ffad0144b4222c3f8f0201a46d1
:100d1800d2f8f03013f0400ffad00f4b4122c3f84d
:100d280014211a46d2f8143113f0400ffad0094ba7
:100d38000c4a1a614df2ff725a610b4a9a614ff4dc
:100d48001052da6108221a62704700bf0010004092
:100d58000601040000080040001c004006010100d4
:0c0d680006010200fffffd0056820100a2
:020000040000fa
:100d740010b43149cb6823f4e0631b041b0c43f02b
:100d8400bf6343f40033cb60bff35f8f62b62b4b7a
:100d9400e02283f82e234ff48040586083f82f23f9
:100da4004ff40040586083f830234ff480345c6083
:100db40083f831234ff400345c6083f836234ff416
:100dc40080045c6083f837234ff400045c6083f88c
:100dd40038234ff080745c6083f839234ff000743b
:100de4005c6083f84a234ff480649c6083f84b234f
:100df4004ff400649c6083f84c234ff480549c604f
:100e040083f84d234ff400549c6083f84f2398607b
:100e14004b6a43f480234b624b6943f010034b61ec
:100e24004b6a43f400334b624b6a43f480334b62a6
:100e34005df8044b704700bf00ed00e000e100e006
:020000040000fa
:100e4400882910b536d012dc812943d003dc8029ef
:100e540040d0002010bd82290ed08429f9d1196810
:100e640002b30a1d1a60b1f90020d3171ee0a029ad
:100e74002bd00bdc9029ecd11968073121f0070144
:100e840001f108021a60d1e900230fe0c02901d062
:100e9400f029ded11a68111d19601368036000235c
:100ea400436005e00a1d1a600a880023c0e9002394
:100eb4000120cfe7196822b10a1d1a6091f90020b8
:100ec400d3e70a1d1a600a78efe71a68111d196042
:100ed4001268cae719681ab10a1d1a600a68c4e7d9
:0c0ee4000c1d1c600b68c0e90032e1e747
:020000040000fa
:100ef00038b5214b01229a611a46936913f0010f0c
:100f0000fbd01d4b9a6942f002029a6141f277428e
:100f1000da601a4ada617722c3f8bc200722c3f8e4
:100f2000c8201422c3f880209a6942f440729a6162
:100f30009a6922f001029a611a46936913f0010f2f
:100f4000fbd10d4b00249c650122da654ff0007245
:100f50005a650b4d2c606c60ac604ff4a07221465a
:100f6000084800f0ebfdec602c616c61ac61ec6159
:100f70002c626c6238bd00bf000400421d58003a6c
:080f80001c020020000000200b
:020000040000fa
:100f880008b5194b9847194b9847eff3108172b67b
:100f9800174ad2f8883043f47003c2f88830bff398
:100fa8004f8fbff36f8f01b962b6124a936823f06f
:100fb800010393601346da6812f0010ffbd10d4b61
:100fc80024225a6001229a6000f084fc0a4b23f024
:100fd8007f03074a9360094b9847094b9847094b89
:100fe800984700f023fbfee7bf1b0000bf1b000073
:100ff80000ed00e00060004100000000291400003e
:08100800bf1b0000bf1b00002c
:020000040000fa
:101010002de9ff471d460c9b13f0010906468a4641
:10102000144601d195420bd822465146304600f075
:1010300015fda54204d82546284604b0bde8f08732
:101040002f1b102f3a464ff0200128bf1022684670
:10105000b84600f073fd00bfb8f10f0f11d83b097f
:101060006ff00f0202fb03726946304600f0f6fc97
:10107000b9f1000fe0d122465146304600f0eefcb7
:10108000dae710226946304600f0e8fca8f11008c3
:04109000e2e700bfd4
:020000040000fa
:10109400640200201c000000000000004402002044
:1010a40020000000000000001c02002028000000b6
:1010b40000000000000000204001000000000000cb
:1010c400f00100202c00000000000000900100202e
:1010d4006000000000000000800200200400000006
:1010e400000000004001002050000000000000004b
:1010f400840200200800000000000000000000003e
:101104000000000066666666666666666666666613
:020000040000fa
:10111400842910b523d00cdc812903d0822913d073
:1011240080290bd119680c1d1c600b6803601a60c0
:1011340013e0902921d003dc882917d0002010bdaa
:10114400a029efd0c029ece719680c1d1c600b68be
:101154000360d1171046c3e900010120efe71968c5
:101164000c1d1c600b6803601a80f6e719680c1ddf
:101174001c600b6803601a70efe719680c1d1c6093
:0c11840009680160d317c1e90023e6e709
:020000040000fa
:101190001b4b1b7d002b31d010b5194a9368516849
:1011a000184a127e12f0010f15d0994213d9154931
:1011b00013484a6802f00702012a026814bfd25c91
:1011c00032f813208a62013344680a7e12f0010f5c
:1011d00001d09c42edd80a4a936052689a420cd8da
:1011e000074b00221a755a60064a01211175db6807
:1011f0001bb1034b1869db68984710bd704700bfef
:081200009001002000300040c5
:020000040000fa
:101208001b4b1b7d002b31d010b5194a93685168d0
:10121800184a127e12f0010f15d0994213d91549b8
:1012280013484a6802f00702012a026814bfd25c18
:1012380032f813208a62013344680a7e12f0010fe3
:1012480001d09c42edd80a4a936052689a420cd861
:10125800074b00221a755a60064a01211175db688e
:101268001bb1034b1869db68984710bd704700bf76
:08127800c0010020002001412b
:020000040000fa
:101280002de9f84f04460c9f6668d4f80cb0246929
:1012900010463a68013c002502f0020a0b9a0bf84e
:1012a0000450002e1946b8bf0126012390464fea8c
:1012b000e279002c03dcd3b12046bde8f88f50ea78
:1012c000010209d1721b002a06dc0a9a521b002a6d
:1012d000f1ddbaf1000feed042464b4600f07cfb48
:1012e000013c134630320bf804200135e1e73b683e
:0812f00023f010033b60dfe76f
:020000040000fa
:1012f80008b5174b93f82c30cbb1154bda691b6a3c
:10130800934214d2124b986a124a916a1b6a526825
:1013180002f00702012a0e4a926914bfd15422f83a
:10132800131001330a4a1362d2699a4200d008bde9
:10133800074b002283f82c20da61064a84211175b4
:101348005b6a002bf3d0024b5b6a9847efe700bf5c
:0813580090010020003000406c
:020000040000fa
:1013600008b5174b93f82c30cbb1154bda691b6ad3
:10137000934214d2124b986a124a916a1b6a5268bd
:1013800002f00702012a0e4a926914bfd15422f8d2
:10139000131001330a4a1362d2699a4200d008bd81
:1013a000074b002283f82c20da61064a842111754c
:1013b0005b6a002bf3d0024b5b6a9847efe700bff4
:0813c000c001002000200141e2
:020000040000fa
:1013c800144b01221a601a46d369002bfcd1114b29
:1013d8004ff480725a601a46d369002bfcd10d4b2a
:1013e8000922da600c4a1a601a46d369002bfcd12c
:1013f800084b10225a831a46d369002bfcd1074b9d
:10140800002283f8212083f82020024b83229a753a
:10141800704700bf000c004316001000f0010020c8
:020000040000fa
:101428000e4a38b5002313600d4a0e4c13600e4a5d
:101438000e4d13600e4a13600e4a13600e4a536233
:1014480013610123936000f0b8fb00f0b6fbac42d7
:1014580000d338bd54f8043b9847f8e784020020cd
:101468004c010020700200004801002074020000b6
:0c14780040010020440100205001002031
:020000040000fa
:1014840008b5144b9b7df3b1124a137edbb2927df7
:1014940012f0800f18d10f4a137edbb2927d12f046
:1014a400010f04d013f0010f01d0fff76ffe094aba
:1014b400137edbb2927d12f0040f04d013f0040ffc
:1014c40001d0fff717ff08bd13f0800fe3d000f041
:0814d400cbf9e0e70030004015
:020000040000fa
:1014dc0008b5144b9b7df3b1124a137edbb2927d9f
:1014ec0012f0800f18d10f4a137edbb2927d12f0ee
:1014fc00010f04d013f0010f01d0fff77ffe094a52
:10150c00137edbb2927d12f0040f04d013f0040fa3
:10151c0001d0fff71fff08bd13f0800fe3d000f0e0
:08152c00bbf9e0e700200141da
:020000040000fa
:10153400f0b50c4649682368a668e76887b00029b7
:101544000593a4bf23f00203059305ab02930a237a
:10155400cde900630546d2e900232046fff78efe5d
:101564002269059b0093013a3346121a391828461a
:10157400fff74cfd6b68db0503d563689842b8bf81
:06158400184607b0f0bd9f
:020000040000fa
:02158a00fee77a
:020000040000fa
:10158c00114b124a1a604df6ad029a814ff440325b
:10159c005a601a46d369002bfcd10b4a136843f0ee
:1015ac0002031360d369002bfcd1094b00229a6112
:1015bc00da611a6283f82c205a621a605a609a60b7
:1015cc001a75da60da85704700300040040120405b
:0415dc00900100205a
:020000040000fa
:1015e000114b124a1a604df6ad029a814ff4403207
:1015f0005a601a46d369002bfcd10b4a136843f09a
:1016000002031360d369002bfcd1094b00229a61bd
:10161000da611a6283f82c205a621a605a609a6062
:101620001a75da60da857047002001410401104024
:04163000c0010020d5
:020000040000fa
:10163400f0b58fb0002000f085f90e4800f0f8f9fd
:1016440000220d4f16460d4c06e0019b0133019319
:10165400019ba342f9d92a46551c394602a800f039
:101664003bfa02a800f0e4f90196019ba342f2d8e8
:10167400ebe700bff017000020180000bfc62d00e4
:020000040000fa
:1016840030b589b015464ff0ff32019202f20312d1
:10169400029200b96846cde9030151b14c1e0029fc
:1016a400059408da094b4f221a604ff0ff3009b055
:1016b40030bd0c46f3e700220270cde906001a465d
:1016c400294601a800f0faf9f1e700bf88020020da
:020000040000fa
:1016d400104b00229a61da610f4b83221a765a6802
:1016e40022f480225a601a46d369002bfcd161b1de
:1016f400084b032283f8202041ea4001064b59623b
:101704001a46d369002bfcd17047024b042283f89c
:0c1714002020f1e7f0010020000c004351
:020000040000fa
:10172000104b012283f8cc2083f8cd2083f8d820f9
:1017300083f8d920772183f8b610332183f8bc10c1
:101740004ff40051c3f80011002183f84d1183f8c4
:10175000361183f8c82183f8c921222283f8b421e5
:08176000704700bf008000414a
:020000040000fa
:1017680010b50278202a034600f10100f9d0a2f151
:1017780009010429f5d92b2a07d02d2a11d10121d5
:101788000133013b00200a2403e00021f8e760430d
:10179800801a13f8012f303a092af8d901b94042c2
:0617a80010bd0021ede779
:020000040000fa
:0217ae00fee754
:020000040000fa
:1017b00010b5054c227832b9044b13b10448aff38d
:1017c00000800123237010bd64020020000000008f
:1017d0000000000008b5034b1bb103490348aff3f9
:1017e000008008bd0000000068020020000000002a
:020000040000fa
:1017f0000d0a3d3d3d2053414d2045353420636168
:101800006c697369796f7221204d657268616261dc
:10181000204675726b616e203d3d3d0d0a00000053
:1018200053617961633a20256c750d0a000000bf91
:020000040000fa
:1018300030b50d4a002300bf12f8134024b902eb63
:1018400043035b78184630bd01680d78a54209bf97
:1018500002eb430301335b78013114bfdbb201605b
:0c1860000a2be9d9eee700bf101b0000c6
:020000040000fa
:10186c000b4b5b8b13f0070300d1704710b5094c81
:10187c00e38500f07bf8064b84221a75002384f86c
:10188c002c30636a13b1a06a636a984710bd00bf1d
:08189c00003000409001002023
:020000040000fa
:1018a4000b4b5b8b13f0070300d1704710b5094c49
:1018b400e38500f077f8064b84221a75002384f838
:1018c4002c30636a13b1a06a636a984710bd00bfe5
:0818d40000200141c0010020c9
:020000040000fa
:1018dc0070b50b480b4d4ff6ff76016821b9436884
:1018ec0013b900f067f970bd83684268334000f1aa
:1018fc000c0455f823302046984704eb8000ece7a5
:08190c0094100000281b0000ec
:020000040000fa
:101914000b4b01221a601a46136913f0010ffbd115
:10192400074b18221a6003221a734ff0ff32da6150
:1019340033229a721a461369002bfcd1704700bff8
:041944000038004027
:020000040000fa
:1019480008b500f013f9fff7e7fefff791f9fff785
:1019580043fe00f02cf9fff715fefff7c5fafff775
:101968002ffd00f027f9fff7d1fffff7fff908bdba
:020000040000fa
:101978000a4b5b8b13f0070f0ed0084b80221a76a8
:1019880007225a831b7e13f0040f05d0034b9a6a73
:101998001a7e12f0040ffad1704700bf00300040e1
:020000040000fa
:1019a8000a4b5b8b13f0070f0ed0084b80221a7678
:1019b80007225a831b7e13f0040f05d0034b9a6a43
:1019c8001a7e12f0040ffad1704700bf00200141bf
:020000040000fa
:1019d80053b94ab9002908bf00281cbf4ff0ff318e
:1019e8004ff0ff3000f0e4b8adf1080c6de904ce1b
:1019f800fef7ccfdddf804e0dde9022304b0704712
:020000040000fa
:101a0800802910db812901dd83290cd11368073374
:101a180023f0070303f108011160d3e90023c0e9ab
:0a1a280000230120704700207047e2
:020000040000fa
:021a3200fee7cd
:020000040000fa
:101a3400017849b1074a137e13f0010ffbd091627c
:101a440010f8011f0029f6d1024a137e13f0020f89
:081a5400fbd0704700200141a6
:020000040000fa
:101a5c0038b50569954228bf154604465db12a463e
:101a6c00406900f019f8636922692b44551b002268
:081a7c00636125611a7038bd99
:020000040000fa
:101a840010b50023934206d113f0030018bf0120c0
:0e1a940000eb930010bdc45ccc540133f2e7ac
:020000040000fa
:021aa200fee75d
:020000040000fa
:101aa4005ab110b40a44431e11f8014b03f8014f14
:0c1ab4009142f9d15df8044b7047704777
:020000040000fa
:101ac00013b50446019201aafef7e0fb636813f028
:0c1ad000100f18bf4ff0ff3002b010bd27
:020000040000fa
:101adc000eb403b503aa52f8041b019200f053f89c
:0a1aec0002b05df804eb03b0704790
:020000040000fa
:021af600fee709
:020000040000fa
:101af80003783bb1034600bf13f8012f002afbd13e
:081b0800181a704718467047d7
:020000040000fa
:101b100068076c094c836a9074a07ac0008068885a
:061b200000846c820081cc
:020000040000fa
:021b2600fee7d8
:020000040000fa
:101b2800511b0000851a0000a71b0000a71b00001e
:041b3800a71b0000e7
:020000040000fa
:101b3c0032b1c9b20244034603f8011b9342fbd1f4
:041b4c00704700bf1f
:020000040000fa
:101b50000a440023914201d10020704701f8013b63
:021b6000f8e7a4
:020000040000fa
:021b6200fee79c
:020000040000fa
:101b64000001020304050607080c10141820304075
:020000040000fa
:101b7400024b40f204521a80704700bf00400041fb
:020000040000fa
:0e1b8400a0f14103192b98bf40f020007047dc
:020000040000fa
:0c1b920013460a466ff00041fff773bdd8
:020000040000fa
:081b9e00286e696c2900250086
:020000040000fa
:041ba6000020704764
:020000040000fa
:041baa000020704760
:020000040000fa
:041bae00002070475c
:020000040000fa
:041bb2000020704758
:020000040000fa
:021bb600704776
:020000040000fa
:041bb800704700bfb3
:020000040000fa
:021bbc00704770
:020000040000fa
:021bbe0070476e
:020000040000fa
:021bc00070476c
:020000040000fa
:021bc20070476a
:020000040000fa
:0200000400807a
:044000003912003c35
:020000040000fa
:0200000400807a
:044004008000a82a66
:020000040000fa
:0200000400807a
:04400800ffffffffb8
:00000001FF
